:100000000EC026C086C024C096C022C021C020C019
:100010001FC01EC01DC01CC01BC01AC039C0112487
:100020001FBECFEDCDBF10E0A0E6B0E0E2E6F2E00B
:1000300002C005900D92A636B107D9F710E0A6E6EA
:10004000B0E001C01D92A736B107E1F702D007C1A9
:10005000D7CF81B5836181BD81B5877F81BD16B85A
:1000600080B5856080BD88B1876F88B9479AF8945C
:1000700082E087BBC39A88E085BB80E28BBF84E0C7
:1000800089BF1CBC83E880BF88E48DB97894FFCF1A
:100090001F920F920FB60F9211242F933F938F93BD
:1000A0009F93AF93BF939FB1892F8150843018F4F1
:1000B0009093660022C080916600809160009091CC
:1000C0006100A0916200B09163002091660030E071
:1000D000220F331F220F331F220F331F21503040B6
:1000E00004C0B695A795979587952A95D2F78FB9AD
:1000F00080916600815080936600769ABF91AF919F
:100100009F918F913F912F910F900FBE0F901F9055
:1001100018951F920F920FB60F9211248F9386B3EA
:10012000769A8EB1807F8EB96C9A8F910F900FBEA8
:100130000F901F9018951F920F920FB60F921124D7
:10014000AF92BF92CF92DF92EF92FF920F931F93E5
:100150002F933F934F935F938F939F93AF93BF934F
:100160002091640086B330E090E08071907044E0AC
:10017000959587954A95E1F72817390709F44CC0FA
:10018000809164008F3F09F447C0E0906000F090D8
:100190006100009162001091630080916400A09062
:1001A0006000B0906100C0906200D0906300209128
:1001B000600030916100409162005091630090E0D6
:1001C000A0E0B0E0689412F85695479537952795CA
:1001D0001694D1F782279327A427B5278A259B2534
:1001E000AC25BD2581709070A070B070B82FAA2783
:1001F0009927882716950795F794E7948E299F29C4
:10020000A02BB12B8093600090936100A0936200BB
:10021000B09363008FEF09C086B390E08071907057
:1002200024E0959587952A95E1F78093640088B737
:10023000846088BFBF91AF919F918F915F914F91E3
:100240003F912F911F910F91FF90EF90DF90CF90F2
:10025000BF90AF900F900FBE0F901F901895F8941D
:02026000FFCFCE
:0602620055555501FF0097
:00000001FF
