:100000000EC026C064C076C023C022C021C020C05C
:100010001FC01EC01DC01CC01BC01AC03CC0112484
:100020001FBECFEDCDBF10E0A0E6B0E0E4E0F2E00F
:1000300002C005900D92A636B107D9F710E0A6E6EA
:10004000B0E001C01D92A636B107E1F702D0D8C0DA
:10005000D7CF81B5836181BD81B5877F81BD16B85A
:1000600080B5856080BD88B1876F88B9479AF8945C
:1000700082E087BBC39A88E085BB8BB780628BBF69
:1000800080E489BF80E88EBD1CBC81E080BF88E130
:100090008DB97894FFCF1F920F920FB60F92112453
:1000A0008F939F93AF93BF93809160009091610075
:1000B000A0916200B09163008FB9769ABF91AF9121
:1000C0009F918F910F900FBE0F901F9018951F92C8
:1000D0000F920FB60F9211248F9386B3B99A8EB1F7
:1000E000807F8EB9769A6E9A8F910F900FBE0F9087
:1000F0001F9018951F920F920FB60F921124AF9276
:10010000BF92CF92DF92EF92FF920F931F932F93A4
:100110003F934F935F938F939F93AF93BF931FBC76
:100120002091640086B330E090E0807190702817D1
:10013000390709F44CC0809164008F3F09F447C02F
:10014000E0906000F0906100009162001091630007
:1001500080916400A0906000B0906100C090620047
:10016000D090630020916000309161004091620066
:100170005091630090E0A0E0B0E0689412F85695CA
:100180004795379527951694D1F782279327A4276B
:10019000B5278A259B25AC25BD2581709070A07060
:1001A000B070B82FAA279927882716950795F79436
:1001B000E7948E299F29A02BB12B80936000909308
:1001C0006100A0936200B09363008FEF02C086B31A
:1001D000807180936400BF91AF919F918F915F91E7
:1001E0004F913F912F911F910F91FF90EF90DF90D2
:1001F000CF90BF90AF900F900FBE0F901F901895AB
:04020000F894FFCFA0
:0602040055555501FF00F5
:00000001FF
